:4000000080673030303030307e3030307e3030307e3030307e3030307e3030307d09d87e7e3030307e3030307e3030307e3030307e3030307e3030307e3030307e30303027
:4000400030303030303030303030303030303030303030303030303030303030303030307e3030307e303030711062e38770ef62e33841fefb50154e62e33855f80055f936
:4000800000711062e00270ef62e338627105627505627905627d057c02b350005509113c0911a0053f098ff8500157e85509003c0906a00b08283f09187509008ff2711079
:4000c00070ef62e000711062e00070ef62e2007c08518fff50107f303030303030303030303030303030303030303030303030303030303030303030303030303030303007
:4001000030303030303030303030303030303030303030303030303030303030303030303030303030303030303030303030303030303030303030303030303030303030bf
:400140003030303030303030303030303030303000004c4f414445442020202020004c4f4144494e4720202020004641494c45442020202020005341564544202020202060
:400180002000534156494e47202020202000494e4352454d454e544544006028660063056500e600e700d600b000b100b200b333b433b500b600b855b900ba10bb33bc3373
:4001c000bd00be00ff61006900600062006733683363006600d100d300d000d200e1ffe200dfffde02dd00ff00000000000070ef62000071106200006201ff70ef6203fc93
:40020000620200711062020062030070ef62010062040071106204006205f870ef6207f8620600711062060062070770ef620507620800711062087f62098070ef620b8049
:40024000620a007110620a00620b0070ef620900620c007110620c00620d0070ef620f00620e007110620e00620f0070ef620d00621000711062100062110070ef62130006
:40028000621200711062120062130070ef621100621400711062140062150070ef621700621600711062160062170070ef62150070ef7f550a00550c00550dff550efc555f
:4002c0000b00550f7f5510807c02cf7c01ee7f1070ef5000675001579a7c02ea500167500157c57c02ea70ef207f380210084f56fc00d00456fc01182070ef62e30010088b
:400300002839ffa01f4f48fc01a003711054fd18207509001008284f59fd610018207509008fd738fc7f081028b00420187f903c201875dff2748fef303132333435363747
:4003400038394142434445460867676767210fffe7901918210fffe090127f4b9fea5b9fe77f5200a0069004758ff87f905f0867676767210f903818210f40404090307fbf
:40038000904b0867676767210f900918210f40404090017f08260b80510b600818210f29102a0b6008530b40218f530b60087f08260b802e0b20510b600818210f29302a0e
:4003c0000b6008530b4021af530b60087f08260b80510b6008260ff0510f7110600870ef2e0b40510b6008401057ff2e0b50510b600840405d0808260bc0510b600840403b
:40040000402e0b50510b60084040260bc0510b6008182108a00479bfd3202e0f7f510f7110600870ef187f260f802e0f7f261080510f711060085110600970ef50fa906319
:4004400050fa905f50039f4c5052905750039f44905f905d905b50039f3a505a904550029f32505a903d50089f16505a903550019f0e505a902d50069f06500e9f02502ce3
:400480009efe50089efa500c9ef650039ef2505a90117f80c094d4210310fff74f03ff209ede7f900c78bffc7f08193a7c010101010871105de070ef21073905d006ffe963
:4004c00078bffe187f2e0d03260cfc260efc510e60037110510d6001510c600070ef260afc510a60007f7f4f52fd64290155110048f901b00591ae80039177471101a02025
:400500002e1110107bfab0042611ef9249201052fc0820511254002077fc48faffbfe548f902b00392b65000471101a00350017f64290155110048fd01b005916880039107
:4005400031471101a01e2e1110107bfeb0042611ef9203201059005112540020770048feffbfe748fd02b00392725000471101a00350017f4f52fd6455110048f901b005b1
:400580009123800390ec551300471101a01a1052fc082052005312913620471101a00e761377fc7bfabfe848f902b003922e51137f6455110048fd01b00590e9800390b22e
:4005c000551300471101a0181059005200531290fe20471101a00e761377007bfebfea48fd02b00391f651137f4f52fd6455110048f901b00590ae80039077551300471140
:4006000001a01d1052fb59fc28531290c220471101a012761377fcd00377fb7bfabfe548f902b00391b651137f6455110048fd01b00590718003903a551300471101a01d35
:400640001052ff5900285312908520471101a01276137700d00377ff7bfebfe548fd02b003917951137f6479d00490067f290190017f0871102e0c02260cfe510c600050a4
:400680000c9188260cfd510c600070ef490002affc500c917618900d7f6479d00490067f290190017f7110082e0c01510c6000500591581870ef531271102e0c02510c6028
:4006c0000070ef5002914490067f531290017f5514087a1471102e0c02510c600070ef6b127110c00a2e0c01510c60008008260cfe510c600050059112260cfd510c6000f9
:4007000070ef490002affc500591003c1400bfc390017f71102e0c02510c6000260cfe510c6000500c90e4260cfd510c600070ef490002affc2611fe490001b0042e1101b1
:40074000500590c7511121017f55110021ffa0072e111090017f5514087a146b1271102e0c02510c6000500590a1260cfd510c600070ef490002affc5002908f2612fe4991
:400780000001a0042e12013c1400bfce90017f71102e0c02510c600070ef4711107110a00a2e0c01510c60008008260cfe510c600050029056260cfd510c600070ef4900c1
:4007c00002affc5005904471102e0c02510c6000260cfe510c600070ef51127f71102e0c03510c6000500c9022260cfd510c600070ef490002affc7110500c900e260cfe06
:40080000510c60005005900370ef7f78bffe7f0851090841e0df5d045309470904a00955010155000080265d045309470902a00955030155020080155d045309470901a060
:4008400009550501550400800443e020185309187e104f38055508505509015a07060702105506005109580808283f071875090076063c0602bff220710143e020107c04cb
:40088000c57c04272010500057007c04972052031057007c035b203c0000b03b3c0101b03610570050017c0497500108508e5c187c032620770356010056000077010f00d0
:4008c00000520111205200318019cecff055010055000043e0203c0200b06c3c0301b06710570050017c049750010850825c187c032620105000085002085a080608025174
:4009000009085108085050087c057438fb2054043d0400a01610570050017c049750010850765c187c032620801410570050017c0497500108506a5c187c032620550300d8
:4009400055020043e0203c0400b0873c0501b08210570050017c0497500108505e5c187c032620105002085001085a080608025109085108085050087c057438fb2053099f
:4009800010500108085a080608035109085108085050087c04e738fb2054043d0400a01610570050017c049750010850525c187c032620801410570050017c049750010820
:4009c000506a5c187c03262055050055040043e0208eb338fb208fff7d080f7e3030303030303030303030303030303030303030303030303030303030303030303030301a
:400a000030303030303030303030303030303030303030303030303030303030303030303030303030303030303030303030303030303030303030303030303030303030b6
:400a40003030303030303030303030303030303030303030303030303030303030303030303030303030303030303030303030303030303030303030303030303030303076
:400a80003030303030303030303030303030303030303030303030303030303030303030303030303030303030303030303030303030303030303030303030303030303036
:400ac00030303030303030303030303030303030303030303030303030303030303030303030303030303030303030303030303030303030303030303030303030303030f6
:020000040010ea
:020000040020da
:02000000fef50b
:00000001ff
