:4000000080673030303030307e3030307e3030307e3030307e3030307e3030307d0a0c7e7e3030307e3030307e3030307e3030307e3030307e3030307e3030307e303030f2
:4000400030303030303030303030303030303030303030303030303030303030303030307e3030307e303030711062e38770ef62e33841fefb501d4e62e33855f80055f92e
:4000800000711062e00270ef62e338627105627505627905627d057c02bd50005509113c0919a0053f098ff8500157f25509003c0906a00b08283f09187509008ff271105d
:4000c00070ef62e000711062e00070ef62e2007c085b8fff50107f3030303030303030303030303030303030303030303030303030303030303030303030303030303030fd
:4001000030303030303030303030303030303030303030303030303030303030303030303030303030303030303030303030303030303030303030303030303030303030bf
:40014000303030303030303030303030303030300012340801150302930000934c4f414445442020202020004c4f4144494e4720202020004641494c4544202020202000e4
:40018000534156454420202020202000534156494e47202020202000494e4352454d454e544544006028660063056500e600e700d600b000b100b200b333b433b500b600cd
:4001c000b855b900ba10bb33bc33bd00be00ff61006900600062006733683363006600d100d300d000d200e1ffe200dfffde02dd00ff00000000000070ef62000071106248
:4002000000006201ff70ef6203fc620200711062020062030070ef62010062040071106204006205f870ef6207f8620600711062060062070770ef620507620800711062e5
:40024000087f62098070ef620b80620a007110620a00620b0070ef620900620c007110620c00620d0070ef620f00620e007110620e00620f0070ef620d006210007110629f
:40028000100062110070ef621300621200711062120062130070ef621100621400711062140062150070ef621700621600711062160062170070ef62150070ef7f550a007e
:4002c000550c00550dff550efc550b00550f7f5510807c02d97c01f87f1070ef500067500157a47c02f4500167500157cf7c02f470ef207f380210084f56fc00d00456fcce
:4003000001182070ef62e30010082839ffa01f4f48fc01a003711054fd18207509001008284f59fd610018207509008fd738fc7f081028b00420187f903c201875dff2746c
:400340008fef303132333435363738394142434445460867676767210fffe7901918210fffe090127f4b9fea5b9fe77f5200a0069004758ff87f905f0867676767210f9024
:400380003818210f40404090307f904b0867676767210f900918210f40404090017f08260b80510b600818210f29102a0b6008530b40218f530b60087f08260b802e0b201e
:4003c000510b600818210f29302a0b6008530b4021af530b60087f08260b80510b6008260ff0510f7110600870ef2e0b40510b6008401057ff2e0b50510b600840405d08e9
:4004000008260bc0510b60084040402e0b50510b60084040260bc0510b6008182108a00479bfd3202e0f7f510f7110600870ef187f260f802e0f7f261080510f7110600842
:400440005110600970ef50fa906350fa905f50039f4c5052905750039f44905f905d905b50039f3a505a904550029f32505a903d50089f16505a903550019f0e505a902df3
:4004800050069f06500e9f02502c9efe50089efa500c9ef650039ef2505a90117f80c094d4210310fff74f03ff209ede7f900c78bffc7f08193a7c010101010871105de070
:4004c00070ef21073905d006ffe978bffe187f2e0d03260cfc260efc510e60037110510d6001510c600070ef260afc510a60007f7f4f52fd64290155190048f901b00591ec
:40050000ae80039177471901a0202e1910107bfab0042619ef9249201052fc0820511a54002077fc48faffbfe548f902b00392b65000471901a00350017f6429015519008d
:4005400048fd01b005916880039131471901a01e2e1910107bfeb0042619ef920320105900511a540020770048feffbfe748fd02b00392725000471901a00350017f4f523f
:40058000fd6455190048f901b0059123800390ec551b00471901a01a1052fc08205200531a913620471901a00e761b77fc7bfabfe848f902b003922e511b7f645519004821
:4005c000fd01b00590e9800390b2551b00471901a0181059005200531a90fe20471901a00e761b77007bfebfea48fd02b00391f6511b7f4f52fd6455190048f901b005900f
:40060000ae80039077551b00471901a01d1052fb59fc28531a90c220471901a012761b77fcd00377fb7bfabfe548f902b00391b6511b7f6455190048fd01b005907180034d
:40064000903a551b00471901a01d1052ff590028531a908520471901a012761b7700d00377ff7bfebfe548fd02b0039179511b7f6479d00490067f290190017f0871102e77
:400680000c02260cfe510c6000500c9188260cfd510c600070ef490002affc500c917618900d7f6479d00490067f290190017f7110082e0c01510c6000500591581870efbc
:4006c000531a71102e0c02510c600070ef5002914490067f531a90017f551c087a1c71102e0c02510c600070ef6b1a7110c00a2e0c01510c60008008260cfe510c60005086
:40070000059112260cfd510c600070ef490002affc500591003c1c00bfc390017f71102e0c02510c6000260cfe510c6000500c90e4260cfd510c600070ef490002affc2662
:4007400019fe490001b0042e1901500590c7511921017f55190021ffa0072e191090017f551c087a1c6b1a71102e0c02510c6000500590a1260cfd510c600070ef4900029f
:40078000affc5002908f261afe490001a0042e1a013c1c00bfce90017f71102e0c02510c600070ef4719107110a00a2e0c01510c60008008260cfe510c6000500290562674
:4007c0000cfd510c600070ef490002affc5005904471102e0c02510c6000260cfe510c600070ef511a7f71102e0c03510c6000500c9022260cfd510c600070ef490002af37
:40080000fc7110500c900e260cfe510c60005005900370ef7f78bffe7f0851090841e0df5d045309470904a00955010155000080265d045309470902a009550301550200fc
:4008400080155d045309470901a009550501550400800443e020185309187e104f38085607005606005508595509015a07060702105506005109580808283f071875090099
:4008800076063c0603bff220710143e020107c04cf7c04312010570c50007c04a120520753085206530951080101540751090900540610580951087c0365500057007c040d
:4008c000a12052031057007c0365203c0000b03b3c0101b03610570050017c04a150010850985c187c033020770356010056000077010f0000520111205200318019cecfe4
:40090000f055010055000043e0203c0200b06c3c0301b06710570050017c04a1500108508c5c187c033020105000085003085a080608025109085108085050087c057e3800
:40094000fb2054053d0500a01610570050017c04a150010850805c187c033020801410570050017c04a150010850745c187c03302055030055020043e0203c0400b0873c54
:400980000501b08210570050017c04a150010850685c187c033020105002085001085a080608025109085108085050087c057e38fb20530910500108085a08060803510946
:4009c000085108085050087c04f138fb2054053d0500a01610570050017c04a1500108505c5c187c033020801410570050017c04a150010850745c187c0330205505005534
:400a0000040043e0208e8f38f8208fff7d08197e30303030303030303030303030303030303030303030303030303030303030303030303030303030303030303030303058
:400a40003030303030303030303030303030303030303030303030303030303030303030303030303030303030303030303030303030303030303030303030303030303076
:400a80003030303030303030303030303030303030303030303030303030303030303030303030303030303030303030303030303030303030303030303030303030303036
:400ac00030303030303030303030303030303030303030303030303030303030303030303030303030303030303030303030303030303030303030303030303030303030f6
:400b000030303030303030303030303030303030303030303030303030303030303030303030303030303030303030303030303030303030303030303030303030303030b5
:020000040010ea
:020000040020da
:02000000007e80
:00000001ff
