:4000000080673030303030307e3030307e3030307e3030307e3030307e3030307e3030307e3030307e3030307e3030307e3030307e3030307e3030307e3030307e303030f5
:4000400030303030303030303030303030303030303030303030303030303030303030307e3030307e303030711062e38770ef62e33841fefb500f4e62e33855f80055f93c
:4000800000711062e00270ef62e338627105627505627905627d057c0265500055030b3c030ba0053f038ff8500157a05503003c0300a00b08283f03187509008ff2711045
:4000c00070ef62e000711062e00070ef62e2007c07c18fff50107f303030303030303030303030303030303030303030303030303030303030303030303030303030303098
:4001000030303030303030303030303030303030303030303030303030303030303030303030303030303030303030303030303030303030303030303030303030303030bf
:400140003030303030303030303030303030303000006028660063056500e600e700d600b000b100b200b333b433b500b600b855b900ba10bb33bc33bd00be00ff61006925
:4001800000600062006733683363006600d100d300d000d200e1ffe200dfffde02dd00ff70ef62000071106200006201ff70ef6203fc620200711062020062030070ef62a8
:4001c000010062040071106204006205ff70ef6207ff620600711062060062070070ef620500620800711062087f62098070ef620b80620a007110620a00620b0070ef6272
:400200000900620c007110620c00620d0070ef620f00620e007110620e00620f0070ef620d00621000711062100062110070ef621300621200711062120062130070ef622e
:400240001100621400711062140062150070ef621700621600711062160062170070ef62150070ef7f5504005506005507ff5508fc55050055097f550a807c02817c01a079
:400280007f1070ef500067500157527c029c5001675001577d7c029c70ef207f380210084f56fc00d00456fc01182070ef62e30010082839ffa01f4f48fc01a00371105457
:4002c000fd18207509001008284f59fd610018207509008fd738fc7f081028b00420187f903c201875dff2748fef30313233343536373839414243444546086767676721e8
:400300000fffe7901918210fffe090127f4b9fea5b9fe77f5200a0069004758ff87f905f0867676767210f903818210f40404090307f904b0867676767210f900918210f3a
:4003400040404090017f082605805105600818210f29102a056008530540218f530560087f082605802e05205105600818210f29302a05600853054021af530560087f08f2
:40038000260580510560082609f051097110600870ef2e054051056008401057ff2e05505105600840405d08082605c0510560084040402e05505105600840402605c051a8
:4003c000056008182108a00479bfd3202e097f51097110600870ef187f2609802e097f260a80510971106008510a600970ef50fa906350fa905f50039f4c50529057500386
:400400009f44905f905d905b50039f3a505a904550029f32505a903d50089f16505a903550019f0e505a902d50069f06500e9f02502c9efe50089efa500c9ef650039ef217
:40044000505a90117f80c094d4210310fff74f03ff209ede7f900c78bffc7f08193a7c010101010871105de070ef21073905d006ffe978bffe187f2e07032606fc2608fcac
:40048000510860037110510760015106600070ef2604fc510460007f7f4f52fd642901550b0048f901b00591ae80039177470b01a0202e0b10107bfab004260bef9249205a
:4004c0001052fc0820510c54002077fc48faffbfe548f902b00392b65000470b01a00350017f642901550b0048fd01b005916880039131470b01a01e2e0b10107bfeb0043b
:40050000260bef920320105900510c540020770048feffbfe748fd02b00392725000470b01a00350017f4f52fd64550b0048f901b0059123800390ec550d00470b01a01abb
:400540001052fc08205200530c913620470b01a00e760d77fc7bfabfe848f902b003922e510d7f64550b0048fd01b00590e9800390b2550d00470b01a0181059005200533f
:400580000c90fe20470b01a00e760d77007bfebfea48fd02b00391f6510d7f4f52fd64550b0048f901b00590ae80039077550d00470b01a01d1052fb59fc28530c90c220c8
:4005c000470b01a012760d77fcd00377fb7bfabfe548f902b00391b6510d7f64550b0048fd01b00590718003903a550d00470b01a01d1052ff590028530c908520470b0140
:40060000a012760d7700d00377ff7bfebfe548fd02b0039179510d7f6479d00490067f290190017f0871102e06022606fe51066000500c91882606fd5106600070ef49002a
:4006400002affc500c917618900d7f6479d00490067f290190017f7110082e060151066000500591581870ef530c71102e06025106600070ef5002914490067f530c9001b4
:400680007f550e087a0e71102e06025106600070ef6b0c7110c00a2e06015106600080082606fe51066000500591122606fd5106600070ef490002affc500591003c0e0087
:4006c000bfc390017f71102e0602510660002606fe51066000500c90e42606fd5106600070ef490002affc260bfe490001b0042e0b01500590c7510b21017f550b0021ff84
:40070000a0072e0b1090017f550e087a0e6b0c71102e060251066000500590a12606fd5106600070ef490002affc5002908f260cfe490001a0042e0c013c0e00bfce9001f4
:400740007f71102e06025106600070ef470b107110a00a2e06015106600080082606fe51066000500290562606fd5106600070ef490002affc5005904471102e06025106a7
:4007800060002606fe5106600070ef510c7f71102e060351066000500c90222606fd5106600070ef490002affc7110500c900e2606fe510660005005900370ef7f78bffeb4
:4007c0007f104f38065502505503015a01060104105500005103580208283f011875090076003c0002bff27c04777c03d92080805602008075105000085002085a02060217
:40080000045103085102085202087c052638fb2054033d0300a02a10500057007c0449201052027c02fa20560100560000800677010f00005201113052001975cff2802813
:4008400010570050017c0449201052027c02fa20560100560000800677010f0000520111d052001907cff2770250ff3b02df878f8038fa208fff3030303030303030303080
:400880003030303030303030303030303030303030303030303030303030303030303030303030303030303030303030303030303030303030303030303030303030303038
:4008c00030303030303030303030303030303030303030303030303030303030303030303030303030303030303030303030303030303030303030303030303030303030f8
:4009000030303030303030303030303030303030303030303030303030303030303030303030303030303030303030303030303030303030303030303030303030303030b7
:400940003030303030303030303030303030303030303030303030303030303030303030303030303030303030303030303030303030303030303030303030303030303077
:020000040010ea
:020000040020da
:02000000f238d4
:00000001ff
